:040000000BEF00F012
:100008002D82FACF06F0FBCF07F048ED04F01CEF85
:0200180006F0F0
:100600000033322C060C4445534952454400000047
:1006100000000000000041435455414C0000000020
:10062000000000000000504F5400000000000000D7
:1006300000000000000020454E544552000000001C
:10064000000000000000526561647920746F20672B
:100650006F00444553495245440050726F626C65C7
:100660006D0041435455414C00454E544552005095
:100670004F540000010E216E69EC06F0000E236E4F
:100680001E0E226EA5EC06F0FBEC05F0000E196EB6
:10069000000E8FEC06F026C019F027C01AF0D1EC3E
:1006A00005F0020E38EC06F0000E9EEC05F0000E90
:1006B000196E080E8FEC06F0520EA0EC04F0010E3D
:1006C000196E080E8FEC06F0620EA0EC04F02B50B1
:1006D000D8A419D0FCD72BA052D0010E216E010E48
:1006E0009EEC05F04CD02BA04AD0000E216E000EDF
:1006F0009EEC05F044D02BA042D0000E216E000EDF
:100700009EEC05F03CD02150000AD8B4E4D7010A91
:10071000D8B4E9D7F0D7000E196E070E8FEC06F0AB
:10072000520EA0EC04F0010E196E070E8FEC06F0CD
:10073000620EA0EC04F0010E20D0000E196E040E23
:100740008FEC06F06F0EA0EC04F0010E196E000E97
:100750008FEC06F0690EA0EC04F0020E0ED0000E35
:10076000196E040E8FEC06F052EC06F024C019F05E
:1007700025C01AF0D1EC05F0050E8B6E08D0215083
:10078000000AD8B4C8D7010AD8B4D7D7E8D7000E22
:100790002B6E9DD7176E17C015F0153A0F0E151654
:1007A0008C501518FE0B15188C6E17C015F0050E21
:1007B000166ED8901532162EFCD715468C5015188B
:1007C000FD0B15188C6E17C015F0060E166ED8901E
:1007D0001532162EFCD7154615468C501518FB0BF6
:1007E00015188C6E156A17AE01D0152A15461546D8
:1007F00015468C501518F70B15188C6E14B002D0D6
:100800008C9801D08C88030EE82EFED78C8A030EBC
:10081000E82EFED78C9A510EE82EFED700D017B0E6
:1008200002D08C9001D08C8017C015F0D890153272
:1008300015468C501518FD0B15188C6E17C015F049
:10084000D8901532D8901532154615468C5015188B
:10085000FB0B15188C6E17C015F0D8901532D89078
:100860001532D89015321546154615468C50151878
:10087000F70B15188C6E030EE82EFED78C8A030E2C
:10088000E82EFED78C9A510EE82EFED700D012002B
:100890000600E9CF08F0EACF09F0E1CF0AF0E2CF95
:1008A0000BF0D9CF0CF0DACF0DF0F3CF0EF0F4CF80
:1008B0000FF0F6CF10F0F7CF11F0F8CF12F0F5CF20
:1008C00013F0F2BAF2A41ED027EC05F0B10E026EBE
:1008D000E00E016EAEEC06F0F2942C2A640E2C1899
:1008E000D8A410D082AE02D0010E01D0000EFF0AB3
:1008F000056E05320532825005187F0B0518826E91
:10090000000E2C6E13C0F5FF12C0F8FF11C0F7FFE8
:1009100010C0F6FF0FC0F4FF0EC0F3FF0DC0DAFFEA
:100920000CC0D9FF0BC0E2FF0AC0E1FF09C0EAFF1B
:1009300008C0E9FF07C0FBFF06C0FAFF2D921100B7
:100940001F6E1FC014F0156A000E176E0A0E166E89
:1009500066EC05F014501E6E1FC014F0156A000EF0
:10096000176E0A0E166EE5EC04F014501F6E1FC0D1
:1009700014F0156A000E176E0A0E166E66EC05F07E
:1009800014501D6E1FC014F0156A000E176E0A0E6B
:10099000166EE5EC04F014501F6E1FC014F0156ABB
:1009A000000E176E0A0E166E66EC05F014501C6EE3
:1009B0001C50300FB7EC06F01D50300FB7EC06F0AE
:1009C0001E50300FB7EC06F01200000E196E17AE75
:1009D00006D0166C171ED8B0172A010E196E15AE68
:1009E00006D0146C151ED8B0152A010E191A000E67
:1009F0001B6E000E1A6E16501710D8B41CD0010EC4
:100A0000186E04D0D89016361736182A17AEFAD7B3
:100A1000D8901A361B361650145C17501558D8A0AB
:100A200005D01650145E1750155A1A80D8901732F8
:100A30001632182EEDD71950D8B404D01A6C1B1EDC
:100A4000D8B01B2A1AC014F01BC015F0120030D009
:100A50008150D8B41200010E296E000E286E81CF8D
:100A60002AF0120081502A18D8A407D0282A0A0E8A
:100A700028641200020E296E1200000E296E120068
:100A80008150D8A41200030E296E12002AC02BF048
:100A9000000E296E000E286E000E2A6E1200000E47
:100AA000296E000E286E000E2A6E000E2B6E1200AC
:100AB0002950000AD8B4CCD7010AD8B4D3D7030A36
:100AC000D8B4DED7010AD8B4E1D7E9D7000E196E41
:100AD00015AE06D0146C151ED8B0152A010E196E6D
:100AE00017AE04D0166C171ED8B0172A1650171060
:100AF000D8B418D0010E186E04D0D8901636173618
:100B0000182A17AEFAD71650145C17501558D8A0EB
:100B100004D01650145E1750155AD890173216325A
:100B2000182EF1D71950D8B404D0146C151ED8B0B3
:100B3000152A14C014F015C015F01200206E52ECE6
:100B400006F0000E196E000E8FEC06F02050200DFE
:100B5000060EF324196E060EF4201A6ED1EC05F081
:100B6000010E196E000E8FEC06F020501E6E1F6AEB
:100B7000D8901E361F361E3A1F3AF00E1F161E5012
:100B80000F0B1F12F00E1E16100E1E26000E1F2237
:100B9000060E1E24196E060E1F201A6ED1EC05F0EB
:100BA0001200000E1D6E13D01D50010D19C01BF058
:100BB0001AC01CF0F3501B26F4501C221BC0F6FF79
:100BC0001CC0F7FF0800F550B7EC06F01D2A1D50B9
:100BD000010D19C01BF01AC01CF0F3501B26F45075
:100BE0001C221BC0F6FF1CC0F7FF0800F5500009CF
:100BF000D8B41200D9D79550C00B956EE00E1A6E7E
:100C00006A0EE82EFED71A2EFCD7000E1B6E040EBD
:100C10001B6401D00ED01B50010D010EF324F66EA3
:100C2000060EF420F76E0800F550BEEC06F01B2A05
:100C3000EED752EC06F012002C6A2B6A2A6A296A57
:100C4000286A8A0EF66E0D0EF76E000EF86E00EE34
:100C500022F010EE06F00900F5CFEEFFE550E1506E
:100C6000FAE12D902D92000EF86E00013AEF03F09C
:100C7000156E000E166E11D0000E176E180E17644A
:100C800001D00AD0680E146EE40EE82EFED7142EA2
:100C9000FCD700D0172AF2D7162A1550165CD8B008
:100CA0001200EAD7010EBEEC06F00D0E196EC30E4F
:100CB000E82EFED7192EFCD700F0020EBEEC06F08F
:100CC0000D0E196EC30EE82EFED7192EFCD700F0BC
:100CD00012000F0EC16E9368000E946E8B68030EA7
:100CE00038EC06F0000E8B6E900E7FEC06F0B10E25
:100CF000156EE00E146E9CEC06F0F28E1200146E6F
:100D000014507F0BD56E000ED76E000ED66EF29487
:100D100014AE02D0F28A01D0F29AD58E12001A6E69
:100D20001950D8A402D0800E01D0C00E196E1950EF
:100D30001A24BEEC06F0120014C016F015C017F00D
:100D400017C0D7FF16C0D6FF12008B8E010E38ECED
:100D500006F08B9E010E38EC06F0120001C003F085
:100D600002C004F004C0D7FF03C0D6FF1200186E03
:100D7000010E146E1850CAEC03F01200186E000E2B
:100D8000146E1850CAEC03F012000A145A064606F4
:020000040020DA
:08000000FFFFFFFFFFFFFFFF00
:020000040030CA
:0E000000FF021F1EFF8181FF0FC00FE00F40A7
:00000001FF
