:040000000BEF00F012
:100008002F82FACF06F0FBCF07F06EED04F042EF37
:0200180006F0F0
:100600000033322C060C412056616C75653E20008B
:10061000000000000000422056616C75653E20001D
:10062000000000000000412056616C75653E20000E
:100630000000000000004E657720413F3E20000092
:10064000000000000000422056616C75653E2000ED
:100650000000000000004E657720423F3E20000071
:10066000000000000000432056616C75653E2000CC
:100670000000000000004E657720433F3E20000050
:10068000000000000000000000000000000000006A
:10069000000000000000000000000000000000005A
:1006A000000000000000526561647920746F2067CB
:1006B0006F0050726F626C656D000000140E256E45
:1006C0001E0E236E280E216E000E226E010E246E69
:1006D0008FEC06F021EC06F0000E196E000EB5EC62
:1006E00006F02DC019F02EC01AF0F7EC05F0020E3E
:1006F0005EEC06F0000EC4EC05F0000E196E0A0E5A
:10070000B5EC06F02550C6EC04F0010E196E0A0E89
:10071000B5EC06F02350C6EC04F02950D8A419D04B
:10072000FCD729A052D0010E246E010EC4EC05F0B6
:100730004CD029A04AD0000E246E020EC4EC05F065
:1007400044D029A042D0000E246E000EC4EC05F067
:100750003CD02450000AD8B4E4D7010AD8B4E9D771
:10076000F0D7000E196E0A0EB5EC06F02550C6EC57
:1007700004F0010E196E0A0EB5EC06F02350C6EC1B
:1007800004F0010E20D0000E196E0A0EB5EC06F032
:100790002550C6EC04F0010E196E0A0EB5EC06F0F9
:1007A0002250C6EC04F0020E0ED0000E196E000EA0
:1007B000B5EC06F078EC06F02BC019F02CC01AF05E
:1007C000F7EC05F0050E8B6E08D02450000AD8B463
:1007D000C8D7010AD8B4D7D7E8D7000E296E9DD75D
:1007E000176E17C015F0153A0F0E15168C50151808
:1007F000FE0B15188C6E17C015F0050E166ED890EE
:100800001532162EFCD715468C501518FD0B1518F1
:100810008C6E17C015F0060E166ED8901532162E77
:10082000FCD7154615468C501518FB0B15188C6E09
:10083000156A17AE01D0152A1546154615468C5077
:100840001518F70B15188C6E14B002D08C9801D0C7
:100850008C88030EE82EFED78C8A030EE82EFED776
:100860008C9A510EE82EFED700D017B002D08C9093
:1008700001D08C8017C015F0D890153215468C50D9
:100880001518FD0B15188C6E17C015F0D890153281
:10089000D8901532154615468C501518FB0B1518B7
:1008A0008C6E17C015F0D8901532D8901532D890AC
:1008B00015321546154615468C501518F70B1518A8
:1008C0008C6E030EE82EFED78C8A030EE82EFED720
:1008D0008C9A510EE82EFED700D012000600E9CF08
:1008E00008F0EACF09F0E1CF0AF0E2CF0BF0D9CF60
:1008F0000CF0DACF0DF0F3CF0EF0F4CF0FF0F6CF0F
:1009000010F0F7CF11F0F8CF12F0F5CF13F0F2BAE4
:10091000F2A41ED04DEC05F0A00E026E000E016E8A
:10092000CBEC06F0F2942A2A640E2A18D8A410D030
:1009300082AE02D0010E01D0000EFF0A056E053214
:100940000532825005187F0B0518826E000E2A6E44
:1009500013C0F5FF12C0F8FF11C0F7FF10C0F6FF7B
:100960000FC0F4FF0EC0F3FF0DC0DAFF0CC0D9FFBB
:100970000BC0E2FF0AC0E1FF09C0EAFF08C0E9FFBF
:1009800007C0FBFF06C0FAFF2F9211001F6E1FC0A9
:1009900014F0156A000E176E0A0E166E8CEC05F038
:1009A00014501E6E1FC014F0156A000E176E0A0E4A
:1009B000166E0BEC05F014501F6E1FC014F0156A74
:1009C000000E176E0A0E166E8CEC05F014501D6E9C
:1009D0001FC014F0156A000E176E0A0E166E0BEC8F
:1009E00005F014501F6E1FC014F0156A000E176E2C
:1009F0000A0E166E8CEC05F014501C6E1C50300F55
:100A0000D4EC06F01D50300FD4EC06F01E50300F21
:100A1000D4EC06F01200000E196E17AE06D0166C5C
:100A2000171ED8B0172A010E196E15AE06D0146C19
:100A3000151ED8B0152A010E191A000E1B6E000ED5
:100A40001A6E16501710D8B41CD0010E186E04D0B0
:100A5000D89016361736182A17AEFAD7D8901A3605
:100A60001B361650145C17501558D8A005D01650D8
:100A7000145E1750155A1A80D89017321632182E55
:100A8000EDD71950D8B404D01A6C1B1ED8B01B2A4D
:100A90001AC014F01BC015F0120030D08150D8B429
:100AA0001200010E276E000E266E81CF28F0120074
:100AB00081502818D8A407D0262A0A0E26641200CE
:100AC000020E276E1200000E276E12008150D8A46D
:100AD0001200030E276E120028C029F0000E276EA8
:100AE000000E266E000E286E1200000E276E000EFD
:100AF000266E000E286E000E296E12002750000A86
:100B0000D8B4CCD7010AD8B4D3D7030AD8B4DED727
:100B1000010AD8B4E1D7E9D7000E196E15AE06D098
:100B2000146C151ED8B0152A010E196E17AE04D01C
:100B3000166C171ED8B0172A16501710D8B418D034
:100B4000010E186E04D0D89016361736182A17AE34
:100B5000FAD71650145C17501558D8A004D0165068
:100B6000145E1750155AD89017321632182EF1D736
:100B70001950D8B404D0146C151ED8B0152A14C05E
:100B800014F015C015F01200206E78EC06F0000E7F
:100B9000196E000EB5EC06F02050200D060EF32461
:100BA000196E060EF4201A6EF7EC05F0010E196EA0
:100BB000000EB5EC06F020501E6E1F6AD8901E364F
:100BC0001F361E3A1F3AF00E1F161E500F0B1F1233
:100BD000F00E1E16100E1E26000E1F22060E1E24DC
:100BE000196E060E1F201A6EF7EC05F01200000EAB
:100BF0001D6E13D01D50010D19C01BF01AC01CF042
:100C0000F3501B26F4501C221BC0F6FF1CC0F7FF3C
:100C10000800F550D4EC06F01D2A1D50010D19C036
:100C20001BF01AC01CF0F3501B26F4501C221BC0F2
:100C3000F6FF1CC0F7FF0800F5500009D8B41200F9
:100C4000D9D79550C00B956EE00E1A6E6A0EE82E3D
:100C5000FED71A2EFCD7000E1B6E040E1B6401D0AB
:100C60000ED01B50010D010EF324F66E060EF4207B
:100C7000F76E0800F550DBEC06F01B2AEED778EC97
:100C800006F012002A6A296A286A276A266AC40EB0
:100C9000F66E0D0EF76E000EF86E00EE2BF010EEF5
:100CA00004F00900F5CFEEFFE550E150FAE12F9096
:100CB0002F92000EF86E00015EEF03F0156E000E2D
:100CC000166E11D0000E176E180E176401D00AD0E0
:100CD000680E146EE40EE82EFED7142EFCD700D05A
:100CE000172AF2D7162A1550165CD8B01200EAD788
:100CF000010EDBEC06F00D0E196EC30EE82EFED7CA
:100D0000192EFCD700F0020EDBEC06F00D0E196E6A
:100D1000C30EE82EFED7192EFCD700F012000F0EDE
:100D2000C16E9368000E946E8B68030E5EEC06F045
:100D3000000E8B6E900EA5EC06F0B10E156EE00E57
:100D4000146EC2EC06F0F28E1200146E14507F0B7B
:100D5000D56E000ED76E000ED66EF29414AE02D091
:100D6000F28A01D0F29AD58E12001A6E1950D8A4C8
:100D700002D0800E01D0C00E196E19501A24DBEC7F
:100D800006F0120014C016F015C017F017C0D7FFF8
:100D900016C0D6FF120001C003F002C004F004C068
:100DA000D7FF03C0D6FF1200186E010E146E185044
:100DB000F0EC03F01200186E000E146E1850F0ECF8
:080DC00003F01200B206A606C2
:020000040020DA
:08000000FFFFFFFFFFFFFFFF00
:020000040030CA
:0E000000FF021F1EFF8181FF0FC00FE00F40A7
:00000001FF
